{
  "contractName": "Mock",
  "abi": [
    {
      "constant": true,
      "inputs": [],
      "name": "counter",
      "outputs": [
        {
          "name": "",
          "type": "uint256"
        }
      ],
      "payable": false,
      "stateMutability": "view",
      "type": "function"
    },
    {
      "constant": false,
      "inputs": [],
      "name": "increment",
      "outputs": [],
      "payable": false,
      "stateMutability": "nonpayable",
      "type": "function"
    }
  ],
  "bytecode": "0x608060405234801561001057600080fd5b5060ca8061001f6000396000f3006080604052600436106049576000357c0100000000000000000000000000000000000000000000000000000000900463ffffffff16806361bc221a14604e578063d09de08a146076575b600080fd5b348015605957600080fd5b506060608a565b6040518082815260200191505060405180910390f35b348015608157600080fd5b5060886090565b005b60005481565b6001600054016000819055505600a165627a7a723058200b090f7f78463d617a137dfab1cb0e18dacbdaae70fb4cbf7bdee8992ae5c9440029",
  "source": "pragma solidity ^0.4.23;\n\ncontract Mock{\n\n\tuint public counter;\n\n\t// 0xd09...de08a\n\tfunction increment() external {\n\t\tcounter = counter + 1;\n\t}\n}\n",
  "sourcePath": "/Users/satoshinakomoto/FunCode/pay-with-DAI/tests/contracts/Mock.sol",
  "compiler": {
    "name": "solc",
    "version": "0.4.24+commit.e67f0147.Emscripten.clang"
  },
  "schemaVersion": "2.0.1",
  "updatedAt": "2018-09-02T06:55:35.060Z"
}