{
  "contractName": "PayWithToken",
  "abi": [
    {
      "constant": true,
      "inputs": [
        {
          "name": "",
          "type": "bytes32"
        }
      ],
      "name": "signatures",
      "outputs": [
        {
          "name": "",
          "type": "bool"
        }
      ],
      "payable": false,
      "stateMutability": "view",
      "type": "function"
    },
    {
      "constant": true,
      "inputs": [],
      "name": "DelegateBank",
      "outputs": [
        {
          "name": "",
          "type": "address"
        }
      ],
      "payable": false,
      "stateMutability": "view",
      "type": "function"
    },
    {
      "inputs": [
        {
          "name": "_token",
          "type": "address"
        },
        {
          "name": "_wToken",
          "type": "address"
        },
        {
          "name": "_delegateBankAddress",
          "type": "address"
        }
      ],
      "payable": false,
      "stateMutability": "nonpayable",
      "type": "constructor"
    },
    {
      "anonymous": false,
      "inputs": [
        {
          "indexed": false,
          "name": "validSignature",
          "type": "bool"
        }
      ],
      "name": "ValidSignature",
      "type": "event"
    },
    {
      "anonymous": false,
      "inputs": [
        {
          "indexed": false,
          "name": "sufficientBalance",
          "type": "bool"
        }
      ],
      "name": "SufficientFunds",
      "type": "event"
    },
    {
      "anonymous": false,
      "inputs": [
        {
          "indexed": false,
          "name": "validPayload",
          "type": "bool"
        }
      ],
      "name": "ValidPayload",
      "type": "event"
    },
    {
      "anonymous": false,
      "inputs": [
        {
          "indexed": false,
          "name": "feeRecipient",
          "type": "address"
        },
        {
          "indexed": false,
          "name": "fee",
          "type": "uint256"
        }
      ],
      "name": "TransactionDelegationComplete",
      "type": "event"
    },
    {
      "constant": false,
      "inputs": [
        {
          "name": "_signer",
          "type": "address"
        },
        {
          "name": "_hash",
          "type": "bytes32"
        },
        {
          "name": "_v",
          "type": "uint8"
        },
        {
          "name": "_r",
          "type": "bytes32"
        },
        {
          "name": "_s",
          "type": "bytes32"
        },
        {
          "name": "_fee",
          "type": "uint256"
        },
        {
          "name": "_gasLimit",
          "type": "uint256"
        },
        {
          "name": "_expiration",
          "type": "uint256"
        },
        {
          "name": "_value",
          "type": "uint256"
        },
        {
          "name": "_executionAddress",
          "type": "address"
        },
        {
          "name": "_executionMessage",
          "type": "bytes32"
        },
        {
          "name": "_feeRecipient",
          "type": "address"
        },
        {
          "name": "_nonce",
          "type": "uint256"
        }
      ],
      "name": "executeTransaction",
      "outputs": [
        {
          "name": "",
          "type": "bool"
        }
      ],
      "payable": false,
      "stateMutability": "nonpayable",
      "type": "function"
    },
    {
      "constant": false,
      "inputs": [
        {
          "name": "_signer",
          "type": "address"
        },
        {
          "name": "_hash",
          "type": "bytes32"
        },
        {
          "name": "_v",
          "type": "uint8"
        },
        {
          "name": "_r",
          "type": "bytes32"
        },
        {
          "name": "_s",
          "type": "bytes32"
        },
        {
          "name": "_fee",
          "type": "uint256"
        },
        {
          "name": "_gasLimit",
          "type": "uint256"
        },
        {
          "name": "_expiration",
          "type": "uint256"
        },
        {
          "name": "_amount",
          "type": "uint256"
        },
        {
          "name": "_recipient",
          "type": "address"
        },
        {
          "name": "_feeRecipient",
          "type": "address"
        },
        {
          "name": "_nonce",
          "type": "uint256"
        }
      ],
      "name": "executeTokenTransfer",
      "outputs": [
        {
          "name": "",
          "type": "bool"
        }
      ],
      "payable": false,
      "stateMutability": "nonpayable",
      "type": "function"
    }
  ],
  "bytecode": "0x608060405234801561001057600080fd5b506040516060806112be83398101806040528101908080519060200190929190805190602001909291908051906020019092919050505082600160006101000a81548173ffffffffffffffffffffffffffffffffffffffff021916908373ffffffffffffffffffffffffffffffffffffffff16021790555081600260006101000a81548173ffffffffffffffffffffffffffffffffffffffff021916908373ffffffffffffffffffffffffffffffffffffffff160217905550806000806101000a81548173ffffffffffffffffffffffffffffffffffffffff021916908373ffffffffffffffffffffffffffffffffffffffff1602179055505050506111a38061011b6000396000f300608060405260043610610062576000357c0100000000000000000000000000000000000000000000000000000000900463ffffffff1680632422224e1461006757806395c805e8146100b05780639a752f7b146101c2578063fe61b15f146102c6575b600080fd5b34801561007357600080fd5b50610096600480360381019080803560001916906020019092919050505061031d565b604051808215151515815260200191505060405180910390f35b3480156100bc57600080fd5b506101a8600480360381019080803573ffffffffffffffffffffffffffffffffffffffff1690602001909291908035600019169060200190929190803560ff1690602001909291908035600019169060200190929190803560001916906020019092919080359060200190929190803590602001909291908035906020019092919080359060200190929190803573ffffffffffffffffffffffffffffffffffffffff1690602001909291908035600019169060200190929190803573ffffffffffffffffffffffffffffffffffffffff1690602001909291908035906020019092919050505061033d565b604051808215151515815260200191505060405180910390f35b3480156101ce57600080fd5b506102ac600480360381019080803573ffffffffffffffffffffffffffffffffffffffff1690602001909291908035600019169060200190929190803560ff1690602001909291908035600019169060200190929190803560001916906020019092919080359060200190929190803590602001909291908035906020019092919080359060200190929190803573ffffffffffffffffffffffffffffffffffffffff169060200190929190803573ffffffffffffffffffffffffffffffffffffffff1690602001909291908035906020019092919050505061070a565b604051808215151515815260200191505060405180910390f35b3480156102d257600080fd5b506102db610b39565b604051808273ffffffffffffffffffffffffffffffffffffffff1673ffffffffffffffffffffffffffffffffffffffff16815260200191505060405180910390f35b60036020528060005260406000206000915054906101000a900460ff1681565b600061034c8e8e8e8e8e610b5e565b151561035757600080fd5b6103678d8a8a8a8a8a8a89610db4565b151561037257600080fd5b864310151561038057600080fd5b61038a8e8a610ef4565b151561039557600080fd5b8473ffffffffffffffffffffffffffffffffffffffff1686899086604051808260001916600019168152602001915050600060405180830381858888f1935050505015156103e257600080fd5b600260009054906101000a900473ffffffffffffffffffffffffffffffffffffffff1673ffffffffffffffffffffffffffffffffffffffff1663c3b35a7e8f6000809054906101000a900473ffffffffffffffffffffffffffffffffffffffff168c6040518463ffffffff167c0100000000000000000000000000000000000000000000000000000000028152600401808473ffffffffffffffffffffffffffffffffffffffff1673ffffffffffffffffffffffffffffffffffffffff1681526020018373ffffffffffffffffffffffffffffffffffffffff1673ffffffffffffffffffffffffffffffffffffffff1681526020018281526020019350505050602060405180830381600087803b1580156104fc57600080fd5b505af1158015610510573d6000803e3d6000fd5b505050506040513d602081101561052657600080fd5b8101908080519060200190929190505050151561054257600080fd5b6000809054906101000a900473ffffffffffffffffffffffffffffffffffffffff1673ffffffffffffffffffffffffffffffffffffffff1660405180807f6465706f7369742875696e743235362c20616464726573732900000000000000815250601901905060405180910390207c010000000000000000000000000000000000000000000000000000000090048a856040518363ffffffff167c0100000000000000000000000000000000000000000000000000000000028152600401808381526020018273ffffffffffffffffffffffffffffffffffffffff1673ffffffffffffffffffffffffffffffffffffffff168152602001925050506000604051808303816000875af192505050151561065a57600080fd5b6001600360008f6000191660001916815260200190815260200160002060006101000a81548160ff0219169083151502179055507f09df23a71e0beca0db7548939382258f7d84c2d2d8ba1ecfb064d6a5c3839614838a604051808373ffffffffffffffffffffffffffffffffffffffff1673ffffffffffffffffffffffffffffffffffffffff1681526020018281526020019250505060405180910390a19d9c50505050505050505050505050565b60006107198d8d8d8d8d610b5e565b151561072457600080fd5b6107338c898989898988611039565b151561073e57600080fd5b854310151561074c57600080fd5b6107588d868a01610ef4565b151561076357600080fd5b600260009054906101000a900473ffffffffffffffffffffffffffffffffffffffff1673ffffffffffffffffffffffffffffffffffffffff1663c3b35a7e8e6000809054906101000a900473ffffffffffffffffffffffffffffffffffffffff16888c016040518463ffffffff167c0100000000000000000000000000000000000000000000000000000000028152600401808473ffffffffffffffffffffffffffffffffffffffff1673ffffffffffffffffffffffffffffffffffffffff1681526020018373ffffffffffffffffffffffffffffffffffffffff1673ffffffffffffffffffffffffffffffffffffffff1681526020018281526020019350505050602060405180830381600087803b15801561087f57600080fd5b505af1158015610893573d6000803e3d6000fd5b505050506040513d60208110156108a957600080fd5b810190808051906020019092919050505015156108c557600080fd5b6000809054906101000a900473ffffffffffffffffffffffffffffffffffffffff1673ffffffffffffffffffffffffffffffffffffffff1660405180807f73656e6428616464726573732c2075696e743235362900000000000000000000815250601601905060405180910390207c0100000000000000000000000000000000000000000000000000000000900485876040518363ffffffff167c0100000000000000000000000000000000000000000000000000000000028152600401808373ffffffffffffffffffffffffffffffffffffffff1673ffffffffffffffffffffffffffffffffffffffff168152602001828152602001925050506000604051808303816000875af19250505015156109dd57600080fd5b6000809054906101000a900473ffffffffffffffffffffffffffffffffffffffff1673ffffffffffffffffffffffffffffffffffffffff1660405180807f6465706f7369742875696e743235362c20616464726573732900000000000000815250601901905060405180910390207c0100000000000000000000000000000000000000000000000000000000900489856040518363ffffffff167c0100000000000000000000000000000000000000000000000000000000028152600401808381526020018273ffffffffffffffffffffffffffffffffffffffff1673ffffffffffffffffffffffffffffffffffffffff168152602001925050506000604051808303816000875af1925050501515610af557600080fd5b6001600360008e6000191660001916815260200190815260200160002060006101000a81548160ff0219169083151502179055509c9b505050505050505050505050565b6000809054906101000a900473ffffffffffffffffffffffffffffffffffffffff1681565b6000606060008060001515600360008a6000191660001916815260200190815260200160002060009054906101000a900460ff161515141515610ba057600080fd5b6040805190810160405280601c81526020017f19457468657265756d205369676e6564204d6573736167653a0a333200000000815250925082886040516020018083805190602001908083835b602083101515610c125780518252602082019150602081019050602083039250610bed565b6001836020036101000a0380198251168184511680821785525050505050509050018260001916600019168152602001925050506040516020818303038152906040526040518082805190602001908083835b602083101515610c8a5780518252602082019150602081019050602083039250610c65565b6001836020036101000a038019825116818451168082178552505050505050905001915050604051809103902091508873ffffffffffffffffffffffffffffffffffffffff16600183898989604051600081526020016040526040518085600019166000191681526020018460ff1660ff1681526020018360001916600019168152602001826000191660001916815260200194505050505060206040516020810390808403906000865af1158015610d47573d6000803e3d6000fd5b5050506020604051035173ffffffffffffffffffffffffffffffffffffffff161490507f54d4edf2453a01117919cb3a91ceb9329e0361014b9233e1664eb870d890768181604051808215151515815260200191505060405180910390a180935050505095945050505050565b600080896000191689898989898989604051602001808881526020018781526020018681526020018581526020018473ffffffffffffffffffffffffffffffffffffffff1673ffffffffffffffffffffffffffffffffffffffff16815260200183600019166000191681526020018281526020019750505050505050506040516020818303038152906040526040518082805190602001908083835b602083101515610e755780518252602082019150602081019050602083039250610e50565b6001836020036101000a0380198251168184511680821785525050505050509050019150506040518091039020600019161490507f83a8f54129fbacaa624250d1dd0cc75107e1a5735876cc20a7dd8b7864d0cfa481604051808215151515815260200191505060405180910390a18091505098975050505050505050565b60008082600260009054906101000a900473ffffffffffffffffffffffffffffffffffffffff1673ffffffffffffffffffffffffffffffffffffffff166370a08231866040518263ffffffff167c0100000000000000000000000000000000000000000000000000000000028152600401808273ffffffffffffffffffffffffffffffffffffffff1673ffffffffffffffffffffffffffffffffffffffff168152602001915050602060405180830381600087803b158015610fb557600080fd5b505af1158015610fc9573d6000803e3d6000fd5b505050506040513d6020811015610fdf57600080fd5b8101908080519060200190929190505050101590507f9e991cd5d17175fa65f3e4e98c1eb23cd8034b50c7129e27111c53a36821ef2681604051808215151515815260200191505060405180910390a18091505092915050565b6000808860001916888888888888604051602001808781526020018681526020018581526020018481526020018373ffffffffffffffffffffffffffffffffffffffff1673ffffffffffffffffffffffffffffffffffffffff166c0100000000000000000000000002815260140182815260200196505050505050506040516020818303038152906040526040518082805190602001908083835b6020831015156110f957805182526020820191506020810190506020830392506110d4565b6001836020036101000a0380198251168184511680821785525050505050509050019150506040518091039020600019161490507f83a8f54129fbacaa624250d1dd0cc75107e1a5735876cc20a7dd8b7864d0cfa481604051808215151515815260200191505060405180910390a1809150509796505050505050505600a165627a7a723058203bcadd1bab01b526b6b219ad417930e68d8420b5544b7739b1063d0e9699c8330029",
  "source": "pragma solidity ^0.4.23;\n\nimport \"openzeppelin-solidity/contracts/token/ERC20/ERC20.sol\";\nimport \"./wToken.sol\";\n\n// Assume only individials using wrapped tokens are using this.\n\ncontract PayWithToken {\n  event ValidSignature(bool validSignature);\n  event SufficientFunds(bool sufficientBalance);\n  event ValidPayload(bool validPayload);\n  event TransactionDelegationComplete(address feeRecipient, uint256 fee);\n\n  address public DelegateBank;\n  ERC20 token;\n  wToken wtoken;\n\n  mapping (bytes32 => bool) public signatures; // Prevent transaction replays\n\n  constructor(address _token, address _wToken, address _delegateBankAddress) public {\n    token = ERC20(_token);\n    wtoken = wToken(_wToken);\n    DelegateBank = _delegateBankAddress;\n  }\n\n  function verifySignature(address _signer, bytes32 _hash, uint8 _v, bytes32 _r, bytes32 _s) private returns (bool) {\n    require(signatures[_hash] == false);\n\n    bytes memory prefix = \"\\x19Ethereum Signed Message:\\n32\";\n    bytes32 prefixedHash = keccak256(abi.encodePacked(prefix, _hash));\n    bool validSignature = ecrecover(prefixedHash, _v, _r, _s) == _signer;\n    emit ValidSignature(validSignature);\n\n    return validSignature;\n  }\n\n  function verifyPayload(bytes32 _hash, uint256 _fee, uint256 _gasLimit, uint256 _expiration, uint256 _value, address _executionAddress, bytes32 _executionMessage, uint256 _nonce) private returns (bool) {\n    bool validPayload = keccak256(abi.encode(_fee, _gasLimit, _expiration, _value, _executionAddress, _executionMessage, _nonce)) == _hash;\n    emit ValidPayload(validPayload);\n\n    return validPayload;\n  }\n\n  function verifyTokenTransferPayload(bytes32 _hash, uint256 _fee, uint256 _gasLimit, uint256 _expiration, uint256 _amount, address _recipient, uint256 _nonce) private returns (bool) {\n    bool validPayload = keccak256(abi.encodePacked(_fee, _gasLimit, _expiration, _amount, _recipient, _nonce)) == _hash;\n    emit ValidPayload(validPayload);\n\n    return validPayload;\n  }\n\n  // Note this function is called after `verifySignature` --> signer is known be valid\n  function verifyFunds(address _signer, uint256 _fee) private returns (bool) {\n    // no need to check allowance as it's already set ot infinite\n    bool sufficientBalance = wtoken.balanceOf(_signer) >= _fee;\n    emit SufficientFunds(sufficientBalance);\n\n    return sufficientBalance;\n  }\n\n  /**\n   * @notice Submit a presigned smart contract transaction to execute\n   * @param _signer -> Address who's private key signed the hash\n   * @param _hash -> hash of `fee`, `gasLimit`, `expiration`, `amount`, `recipient`\n   * @param _v ->\n   * @param _r ->\n   * @param _s ->\n   * @param _fee -> fee paid to Delegator\n   * @param _gasLimit -> gasLimit definied by the signer\n   * @param _expiration -> blockheigh which the Delegator must execute the contract by\n   * @param _value -> value to be sent to the smart contract (payed by delegator)\n   * @param _executionAddress -> address of smart contract to call\n   * @param _executionMessage -> message to be passed to the smart contract\n   * @param _feeRecipient -> reciever of the fee\n  **/\n  function executeTransaction(address _signer, bytes32 _hash, uint8 _v, bytes32 _r, bytes32 _s, uint256 _fee, uint256 _gasLimit, uint256 _expiration, uint256 _value, address _executionAddress, bytes32 _executionMessage, address _feeRecipient, uint256 _nonce) public returns (bool) {\n    require(verifySignature(_signer, _hash, _v, _r, _s));\n    require(verifyPayload(_hash, _fee, _gasLimit, _expiration, _value, _executionAddress, _executionMessage, _nonce));\n    require(block.number < _expiration); // After payload _verification, know expiration value is correct\n    require(verifyFunds(_signer, _fee));\n\n    // Note test to see if can send value(0) to non payable functions\n    require(_executionAddress.call.value(_value).gas(_gasLimit)(_executionMessage));\n\n    // What is the difference between putting this into an `if` statement vs `require`\n    //Instead of withdrawing the wToken to DAI, could just keep everything as wToken if it uses less gas....\n    require(wtoken.withdrawTo(_signer, DelegateBank, _fee));\n    require(DelegateBank.call(bytes4(keccak256(\"deposit(uint256, address)\")), _fee, _feeRecipient)); // log the deposit into DelegateBank\n    signatures[_hash] = true;\n\n    emit TransactionDelegationComplete(_feeRecipient, _fee);\n  }\n\n  /**\n   * @notice Submit a presigned ERC20 transfer\n   * @param _signer -> Address who signed the hash\n   * @param _hash -> hash of `fee`, `gasLimit`, `expiration`, `amount`, `recipient`\n   * @param _v ->\n   * @param _r ->\n   * @param _s ->\n   * @param _fee -> fee paid to Delegator\n   * @param _gasLimit -> gasLimit definied by the signer\n   * @param _expiration -> blockheigh which the Delegator must execute the contract by\n   * @param _amount -> amount of DAI to be sent\n   * @param _recipient -> recipient of the DAI\n   * @param _feeRecipient -> reciever of the fee\n  **/\n  // in 0x how is the `orderHash` verified? Would like to copy a similar model here so there is no need for massive constructors\n  function executeTokenTransfer(address _signer, bytes32 _hash, uint8 _v, bytes32 _r, bytes32 _s, uint256 _fee, uint256 _gasLimit, uint256 _expiration, uint256 _amount, address _recipient, address _feeRecipient, uint256 _nonce) public returns (bool) {\n    require(verifySignature(_signer, _hash, _v, _r, _s));\n    require(verifyTokenTransferPayload(_hash, _fee, _gasLimit, _expiration, _amount, _recipient, _nonce));\n    require(block.number < _expiration);\n    require(verifyFunds(_signer, _fee + _amount));\n\n    // Add more error checking etc here\n    require(wtoken.withdrawTo(_signer, DelegateBank, _fee + _amount)); // Tranfer all the tokens to bank\n    require(DelegateBank.call(bytes4(keccak256(\"send(address, uint256)\")), _recipient, _amount)); // Transfers tokens to final recipient\n    require(DelegateBank.call(bytes4(keccak256(\"deposit(uint256, address)\")), _fee, _feeRecipient)); // report fee deposit\n\n    signatures[_hash] = true;\n  }\n}\n",
  "sourcePath": "/Users/satoshinakomoto/FunCode/pay-with-DAI/tests/contracts/PayWithToken.sol",
  "compiler": {
    "name": "solc",
    "version": "0.4.24+commit.e67f0147.Emscripten.clang"
  },
  "schemaVersion": "2.0.1",
  "updatedAt": "2018-09-02T06:55:35.074Z"
}